:10000000008000202D10010029100100291001009E
:1000100029100100291001002910010029100100F8
:1000200029100100291001002910010029100100E8
:100030002910010029100100050600002910010007
:1000400029100100C9D00200291001002910010067
:100050008DC9020021D10200D5D00200EDD00200EE
:10006000CDD00200A1170100711801002910010074
:10007000D5070000E1070000291001002910010048
:1000800029100100291001008D180100291001001C
:100090002910010029100100291001002910010078
:1000A0002910010029100100291001002910010068
:1000B00025D10200D1D002005D55010061D10200BE
:1000C0002910010099B9020029100100291001002E
:1000D0002910010029100100291001002910010038
:1000E0002910010029100100291001002910010028
:1000F0002910010029100100291001002910010018
:1001000029100100291001002910010010B5054C2B
:10011000237833B9044B13B10448AFF300800123B3
:10012000237010BD388800200000000090C7050033
:1001300008B5034B1BB103490348AFF3008008BD6A
:10014000000000003C88002090C70500A3F5803A1D
:10015000704700BF174B002B08BF134B9D46FFF79E
:10016000F5FF00218B460F461348144A121A30F04F
:10017000D7FF0E4B002B00D098470D4B002B00D023
:1001800098470020002104000D000D48002802D0EF
:100190000C48AFF3008030F007FF2000290000F08A
:1001A000ABF830F0C9FE00BF0000080000000000FE
:1001B000000000000080002038880020DCCD0020F6
:1001C00000000000000000000DF02EBA07B500236B
:1001D000054A064800934FF4C8710FF043FF00B181
:1001E000FEE703B05DF804FBC90100005888002059
:1001F00008B500F0AFF80EF00DFBBDE80840FFF7C2
:10020000E5BF0EF089BB000010B50368364A23F441
:100210007F4323F00703934288B049D002F18272F2
:1002200093424DD0314A93425CD10DF10F0104A8A5
:1002300023F052F8014600B1FEE79DF815308DF825
:1002400018309DF814308DF819309DF813308DF862
:100250001A30FF238DF81B30FE238DF81C309DF8DB
:1002600012308DF81D309DF811308DF81E309DF83C
:1002700010308DF81F30082206AB122022F09AFFB2
:1002800000B1FEE71A4C204622F026FF034600B1DB
:10029000FEE7A02200901146207822F03BFF00B13B
:1002A000FEE702222078114622F062FFD0B1FEE77D
:1002B0000F4B02221878114622F05AFF90B1FEE748
:1002C000B0F8051015290DD1C37A0079012B094B1F
:1002D0000CBF01224FF0FF321A60002222F0A0FF73
:1002E00000B1FEE708B010BDA0000601A0000100AB
:1002F000048000205488002008B515F053F9FFF75A
:1003000077FF15F05CF9FFF77CFF14F07FFBF8E74F
:100310007FB5039031F092FC0DF116010246009179
:10032000039B1721FF2022F09DFF07B05DF804FB1F
:100330000148FF2113F0D0BC0008014082B049F20F
:100340003D630193019B002B01DC02B07047019BD0
:10035000013BF6E730B51D4D0FCD87B06C460FC49D
:1003600095E803001A4D84E803001A48012111F0B2
:100370003BFB1948012111F037FB0124174B029375
:10038000694628468DF80E4013F00CFC23460422E3
:1003900000210A2012F0C2FE2246002302210A2078
:1003A00012F0BCFE234604220721052012F0B6FEFF
:1003B0002346042221460A2012F0B0FE084BAB6708
:1003C0000B236B67FFF7BAFF07B030BD0080030057
:1003D0000008014000350A00006204008096980081
:1003E0001E1D0012024B0222C3F8EC21704700BF11
:1003F00000A00044024B0222C3F8EC21704700BF6A
:1004000000A0004619B90146014813F065BC7047C9
:100410000008014038B504460D4612B1000EFFF742
:10042000F1FF2946C4F30740FFF7ECFF2946C4F368
:100430000720FFF7E7FF2946E0B2BDE83840FFF7A5
:10044000E1BF000010B5052104460648FFF7CAFFCA
:1004500013F042FCFFF76CFFFFF7CCFF2070002089
:1004600010BD00BF0008014007B50DF10700FFF700
:10047000E9FF9DF8070000F0010003B05DF804FB00
:1004800013B5002304460193FFF7EEFF10B90120D6
:1004900002B010BD019BA34202D8019B0133F2E7D9
:1004A0000020F5E710B52B2104460648FFF79AFF18
:1004B00013F012FCFFF73CFFFFF79CFF20700020B9
:1004C00010BD00BF0008014007B50DF10700FFF7A0
:1004D000E9FF9DF80700C0F3800003B05DF804FB5E
:1004E000B0F5801F73B506460C4615461AD8FFF7BF
:1004F000EBFF032101900C48FFF774FF13F0ECFBB6
:10050000019A00213046FFF785FF2544AC4204D113
:10051000FFF770FF002002B070BDFFF709FF04F87D
:10052000010BF3E70520F6E70008014008B50621B6
:100530000448FFF757FF13F0CFFBFFF75BFF0020E6
:1005400008BD00BF00080140B0F5801FF8B50646A1
:100550000C46154626D8FFF787FF07460028FAD134
:10056000FFF7E4FF02211048FFF73CFF13F0B4FB54
:1005700030463A463946FFF74DFF0B4E2544AC4214
:100580000AD149F23D60FFF735FFFFF779FF0028F8
:1005900014BF00200220F8BD14F8011B304613F0F0
:1005A0009BFBECE70520F6E700080140B0F5801F53
:1005B00037B504461ED8FFF757FF0546E0B9FFF7E9
:1005C00083FF0190FFF7B2FF20210C48FFF70AFFDD
:1005D00013F082FB019A29462046FFF71BFF0848CB
:1005E000FFF708FFFFF74CFF002814BF0020022090
:1005F00003B030BD0520FBE70320F9E70008014008
:10060000C4150E0017F090B908B5044816F026FF7F
:10061000BDE80840024816F051BF00BF2482030025
:10062000108203000120704700B5C3B017F094F8A2
:1006300017F0BDF848B1FFF7F5FF30B101A822F07F
:1006400045FD10B901A8FFF7DFFD43B05DF804FBDD
:100650007047000008B50421112011F0B1FD0948D0
:10066000012111F0C1F90848022111F0A9FD074844
:10067000022111F0A5FD0648022111F0A1FD002084
:1006800008BD00BF30253E0002001E000300200010
:100690000500240008B5234B01225A64224BD3F8ED
:1006A000FC20224B120E12D14AF6E851C3F89011E9
:1006B000D3F8981141F00401C3F89811C3F89021C0
:1006C000D3F8642142F40052C3F8642101E0012A06
:1006D000F6D0174A136A23F4441343F488131362C1
:1006E000A2F58042136843F48073136002F5405210
:1006F000D2F8A43143F4F843C2F8A43113F060FCFB
:100700000FF06CFD13F0EEFB13F010FC13F044FC43
:10071000FFF7A0FF13F0FCFB0FF04EFDBDE8084013
:1007200014F082B800000E400081E00F00300E404F
:1007300000400E4008B511F083F8BDE8084000F015
:100740009BB808B514F034FC00F042F8BDE808404E
:1007500015F03FBC08B513F0B9FBBDE80840FFF742
:1007600053BF704770470FF0C3BCFFF75DBF7047C2
:1007700070B5134C0FCC92B00BAD0FC594E80700C9
:1007800004F10C0685E807000FCE06AD0FC5203436
:1007900033682B6094E80F0002AD85E80F00094B29
:1007A0000093094806AB0BAA294613F0B1FE044694
:1007B00018B106487A2111F077F8204612B070BDC2
:1007C0008482030080880020DC880020548203009B
:1007D000FFF7CEBF014B186813F04ABFDC8800203A
:1007E000FFF7F8BF014813F08BBD00BFDC88002085
:1007F000012070470120704710B517F019F8044622
:100800000FF0A6FC002808BF0024FFF7F1FF002826
:1008100014BF2046002010BD38B514F0DBF90446A3
:1008200017F014F804281ED002284FF0000508BF66
:100830000124FFF7D7FF042817D0022808BF01249E
:100840000FF07CFC042812D0022808BF0124FFF717
:10085000D1FF04280DD0022808BF0124002D18BFA5
:100860000024204638BD0125E3E70125E8E70125FE
:10087000EDE70024F5E70000014810F0ABBC00BF35
:10088000C48203002DE9F34706460D4621B150BB53
:1008900001F00F030F2B2CD01D4B1E4FDFF87CA057
:1008A000DFF8748001930324C4F1030345FA03F3D2
:1008B000DB0713D501AB14F803900F2323FA09F3D8
:1008C00003F00103BEB123B940F21341504610F0CA
:1008D000EBFF012303FA09F3C8F88C31013CE3D2A2
:1008E00002B0BDE8F0870C4B4FF48042C3F8BC2146
:1008F000D2E7084BF8E723B94FF47971504610F06E
:10090000D3FF012303FA09F3C7F88C31E6E700BFF0
:100910000001020300A0004400A00046E48203009E
:10092000F7B50D46C1430446C9B200201F4616461E
:10093000FFF7A8FF21460120FFF7A4FF054906485D
:100940008A5D00230093CB5D495D10F04CFE03B03F
:10095000F0BD00BF63830300C482030082B003467E
:10096000684680E8060040F60F31998100219960C1
:10097000997303C883E8050002B0704773B5044655
:100980001D46A37B02A800E9060033B9A28940F600
:100990000F339A4203D00123A37302B070BDD4E990
:1009A00001329A42F7D8019E9B1AB342F3D3AA426E
:1009B000F1D3521B05D0216819B12944881930F0B0
:1009C00095FB206820B100993246284430F08EFB18
:1009D000A3683344A360E0E78B7B10B51BB1002311
:1009E0000360436010BD8C8940F60F32944202D000
:1009F00001228A73F4E70A688B680260F1E700005D
:100A0000F0B5082285B0CDE9000169460DEB020082
:100A100030F05EFBDDE90227DFF8A8C0C7F30A5318
:100A200013EB0C064FF0000444F1FF31A3F2FF7EFC
:100A30005EEA010E4FEAD775C7F3130014D152EAEC
:100A400000033CD03B03C2F3080009D540F400701A
:100A50001F2340EAC53040EA832080B205B0F0BDD4
:100A6000012838BF0120F3E7B1F1FF3F08BF664519
:100A700022D0102E71F1000721DA16F10E0F71F15C
:100A8000FF3114DA6FF00D01891B01F12A0300F523
:100A90008010C3F1200600FA06F60A3122FA03F3A9
:100AA00020FA01F133430B4398B22346D1E7A3F573
:100AB0007C739BB2800ACCE723462046C9E71F23FC
:100AC0002046C6E701FCFFFF2DE9F043144685B040
:100AD00008221D46694680460DEB0200CDE900451F
:100AE0000C9E30F0F5FA0022002320462946DDE96D
:100AF00002792FF031FE78B120462946FFF780FFBA
:100B00004FF00009074602234046C8E9027988F8F9
:100B1000003005B0BDE8F083194AC9F30A539A18AA
:100B200061EB0101A3F2FF700843E5D066B112F159
:100B30000E0F71F1FF3007DB102A71F1000203DAAA
:100B4000C9F309023A43D7D06FF460729B1862EB85
:100B50000202FE2B72F1000310D237F060460DD175
:100B6000294620462FF068FE04220090694602A81C
:100B700030F0AEFAB146029F0423C5E70823C3E76D
:100B800001FCFFFF2DE9F0430C2987B0DDE90E677A
:100B90000DF1150540D00D2942D0182E77F1000334
:100BA00003D242B9F2B22B461FE0072903D1A6F1C6
:100BB0001F033B4338D0DFF874804FF0000C2B4606
:100BC0000AE018F804409E46A3EB0E094C451CDCD5
:100BD0001B1B121B0CF1010C56EA070E5FFA8CF47A
:100BE000EFD1002AEDDC1734E2B25C1E02EB4112B9
:100BF0002D1B03F8012C2146109B01942A460295D7
:100C0000FFF7BCFE07B0BDE8F0830EF8016D360AB1
:100C100046EA07663F0AD7E71F222B460421E4E78E
:100C20001F222B460521E0E71F22BCE76384030057
:100C30001FB584680294CDE900230022FFF7A2FFCC
:100C400004B010BD8388C3F57F42FE32012AC3BFC2
:100C50000133838000200320704737B56D4604467A
:100C600085E806009822002130F05AFA95E806003F
:100C70002046FFF773FE04F11403C4F894300423F4
:100C8000A37603B030BD7FB56E4686E80C00037CCA
:100C900004460D4683B9092910D196E8030002AA3B
:100CA00082E80300A36806CA2046FFF767FED4F86F
:100CB0009400FFF7C7FF207404B070BD0B2908BF74
:100CC0000221019AFFF7B4FF0B2DF0D0E5E730B514
:100CD000057C85B004465DB985688DE82C000A4620
:100CE0000721FFF74FFFD4F89400FFF7ABFF207404
:100CF00005B030BD10B586B001210446009102A8B0
:100D0000FFF7E2FEDDE904239DF80810204606B057
:100D1000BDE81040FFF7DBBF38B50446D0F89400BB
:100D2000FFF790FF207428B9A26812F1660F02D96C
:100D30000723237438BDD4F8943004F18C05AB42FA
:100D400017BF03F108050220C4F8945098811CBF16
:100D50009A6099732074EDE730B585B0836802938B
:100D600000220023CDE9002304460D46FFF70AFFC9
:100D70002946204605B0BDE83040FFF7CDBFF0B5AD
:100D80001646027C87B004460B463AB9D0F8942048
:100D900000F114018A4203D10423237407B0F0BD8B
:100DA00091798B4201D00F23F7E7836817680229F6
:100DB0001ABFCB1E9BB2DB1B4FF0000518BF9088FB
:100DC000029718BFB0FBF3F32A46CDE90035204661
:100DD000FFF7D8FE66B1214604A8FFF7FDFDDDE967
:100DE000043297420AD8D51B03B13B44C6E900350B
:100DF000D4F89430083BC4F89430CFE72B46F5E79D
:100E000070B5057C86B0044616463DB9D0F89430DE
:100E100000F11402934203D10423237406B070BD81
:100E20009B798B4201D00F23F7E7836802931F223F
:100E30000023CDE9002307212A46FFF7A3FE6EB168
:100E4000214604A8FFF7C8FDDDE90432A1689142FC
:100E50000AD8551A03B10B44C6E90035D4F89430CA
:100E6000083BC4F89430D9E72B46F5E773B5837B8C
:100E70000C460BB101230374057C75B9D0F894209E
:100E800000F114039A420BD16E4601463046FFF73B
:100E9000A3FD96E8030084E80300284602B070BD75
:100EA0000A25FAE72DE9F043B0F802C0D1F8048032
:100EB00049884468038852684FEA8C0989001046C3
:100EC00045460A44DFED0D7A66462F46A6465EB9D2
:100ED000E0EC017A904205F10405F3D1013B4C446A
:100EE000EDD11846BDE8F08397ED007AFEEC016A7B
:100EF0000F4446EE877A013EE9E700BF000000009C
:100F00000388526807EE901A41684088584300B938
:100F10007047B1EC017A27EE277A0138A2EC017A0A
:100F2000F5E7F0B502884B68458844684FEA820CC3
:100F3000AF0003EB820219462846264620B9043347
:100F400093423C44F7D1F0BD56F804EBC1F800E001
:100F500001386144F2E7F0EC017A30B50124002554
:100F6000A14203D1C2ED007A1D6030BDB0EC017A20
:100F7000F4EEC77AF1EE10FA54BFB0EE677A254668
:100F8000F0EE477A0134EBE7F0EC017A30B501245A
:100F90000025A14203D1C2ED007A1D6030BDB0EC46
:100FA000017AF4EEC77AF1EE10FAD4BFB0EE677AA8
:100FB0002546F0EE477A0134EBE7000013B59FEDCC
:100FC000117A019114460B46B0EE476A8BB9DDEDFC
:100FD000017AF8EE677AC7EE276AF5EEC06AF1EE9D
:100FE00010FA0CDB16EE900A34F00CF8206002B018
:100FF00010BDF0EC017A013B07EEA77AE6E784ED3D
:10100000006AF4E7000000009FED077A02B970471C
:1010100030F9023B07EE903AF8EEE77A013A67EED4
:10102000877AE1EC017AF1E700000038F0B58C46F0
:101030000025961CAC4500D8F0BD32F8154036F8B6
:101040001530A4089B0850F8247050F8231040F87D
:10105000241040F823700134013350F8247050F804
:10106000231040F82410023540F82370E2E72DE900
:10107000F04380462DED028BB8F80070D8F80420BC
:1010800001EB870908467908FF0883B0064600EBA4
:10109000810509EB81044B4602EB07179446BC45DA
:1010A00006F1100605F1100504F1100403F1100318
:1010B00010D189B20223019100F042FBD8F804203C
:1010C00001990223484603B0BDEC028BBDE8F04312
:1010D00000F036BB13ED040A16ED046A53ED030A63
:1010E00016ED034A54ED046A54ED034A13ED027AF7
:1010F00013ED015A55ED032A15ED023A55ED013A6B
:1011000054ED027A54ED015A16ED021A15ED042A37
:1011100056ED011A36EE008A36EE406A06ED048A74
:1011200034EE208A34EE604A06ED038A31EE078AF7
:101130000CF1100C06ED028A31EE858A31EEC55AAB
:1011400072EE261A06ED018A45ED041A72EEA41A13
:1011500074EEE24A45ED031A73EE271A77EEC37A6E
:1011600045ED021A73EEA51A75EEE35A45ED011A24
:101170005CED033A1CED043A64EE232A46EE032AA2
:1011800026EE236A14EE036A76EEC26A03ED036A62
:1011900024EE836A16EEA36A66EE836A44EEA36ABF
:1011A00043ED042A04ED046A44ED036A1CED026A6F
:1011B0005CED016A31EE477A65EE264A47EE064A53
:1011C00027EE267A15EE067A43ED024A03ED017A00
:1011D00025EE867A17EEA67A67EE867A45EEA67A2F
:1011E00004ED027A44ED017A59E70388D1ED007AE3
:1011F00042685B082DE9F04F01EBC30595ED007ADD
:10120000D5ED015A37EE876A77EEC77A91ED017A0C
:1012100001EB830677EE256A77EE655A96ED007A44
:10122000D6ED013A2DED048B05EB8304D4ED004A95
:1012300094ED014A37EE065A8FB035EE245A0292E9
:1012400081ED005A5A0896ED015A0A920A46083270
:1012500094ED013A069236EE855A3246083235EE62
:10126000035A0B922A46083281ED015A0C9233EE52
:10127000A75A2246083235EE445A0D92029A86ED5C
:10128000005A36EE476A35EEC75A083276EEE36A00
:1012900077EEE37A37EE257A0792029A009135EEDF
:1012A000245A36EE646A76EEC46A77EE847A37EEB4
:1012B000647A103286ED015A85ED006AC5ED016A47
:1012C000C4ED007A84ED017A0892029A18320992EC
:1012D0005A08023A4FEA5208079A0492089A03926F
:1012E000099A0192009ACDF81480A4F1040A02F13F
:1012F000100E8346A6F104092F1F0AEB830306F1A3
:10130000100105F1100C04F1100204981CED023AD2
:101310001EED026A11ED017A5CED013A12ED014A0F
:101320005EED017A12ED025A083076EE434A0490DF
:10133000039877EE246A10300390019877EEE35A11
:1013400036EE036A36EEC42A77EEA37A51ED026ACE
:10135000183075EEE62A36EE663A77EEC73A76EE44
:10136000A55A34EEC77A76EE866A0190059872EE39
:10137000852A33EE453A73EEC43A37EE047A75EEB9
:10138000C55A76EE856AA9F10809083FAAF1080A4C
:10139000083B0EF1080E08310CF1080C0832002849
:1013A00074D10998069B182707FB08070B9803EBD5
:1013B000C80200EBC80C079B0C98C2ED006A00EB5A
:1013C000C80E03EBC8010D98089BDCED016A03EB26
:1013D000081300EBC80877EEA67AD8ED016A0098EA
:1013E00077EEA67AC2ED017AD1ED016A91ED006A3D
:1013F000029ABDF82810019166EEA27A66EE826A22
:1014000046EE027A56EE226ACCED007ACCED016A05
:10141000D3ED017A93ED006A67EEA36A67EE837AF3
:1014200046EE036A042356EE237ACEED006ACEED33
:10143000017AD7ED017A97ED006A67EEA56A67EE4B
:10144000877A46EE076A56EE257AC8ED006AC8ED3F
:10145000017A00F075F90199DBF80420009130461B
:10146000042300F06DF9DBF80420009928460423DA
:1014700000F066F9DBF804200099042320460FB041
:10148000BDEC048BBDE8F04F00F05AB94EED046A94
:1014900051ED036A049877EEA67A52ED036A77EE6F
:1014A000A67A4EED037ADAED017AD9ED011AD9ED7B
:1014B000024A93ED020A97ED026A93ED014A97ED15
:1014C000018A31EEA75A71EEE71ADAED027A74EE6C
:1014D000A78A36EE409A38EEC61A36EE286A74EEBF
:1014E000E74A36EE006A75EE487A89ED026A97EDB2
:1014F000016A35EE065A93ED016A35EE065A74EE2E
:10150000C86A89ED015A10ED016A10ED025A03987C
:1015100077EEC47A76EE846A34EE484A79EE210A90
:1015200074EE644A26EE224A05EE024A26EE022AAC
:1015300001ED044A20EE854A16EE864A66EE856A7B
:1015400040EE866A15EE222A31EE401A01ED032A9A
:1015500087ED024AC7ED016A10ED036A50ED046A97
:10156000019826EE235A06EE835A26EE033A0CED36
:10157000045A27EE865A16EEA33A11EE665A67EE23
:10158000A66A51EE066A0CED033A8AED025ACAEDDC
:10159000016A50ED067A50ED056A059826EEA56AB7
:1015A00007EE876A0138059026EE877A17EEA57A4E
:1015B00079EE611A02ED037A21EEA77A64EEA77A3A
:1015C00014EEA67A41EEA67A02ED046A83ED027A61
:1015D000C3ED017A99E6012A2DE9F0410588064616
:1015E0000C46174698463ED0B5F5807F49D026D8A0
:1015F000402D31D01CD8102D1CD0202D41D0B8F159
:10160000000F04D0B268B1892046FFF70FFD012F0B
:101610000CD107EE905AF8EE677AF7EE006A86EE84
:10162000A77A0023AB4204F108042FD3BDE8F08170
:10163000802DE4D121463046FFF719FDDFE7B5F5EF
:10164000006F1ED005D8B5F5007F05D0B5F5806FC9
:10165000EFE7B5F5805FD2D17268012329462046B5
:1016600000F06EF8CBE70A1D0023AB4202F108023E
:10167000BAD252ED027AF1EE677A42ED027A013384
:10168000F3E721463046FFF7B0FDB8E754ED027AA4
:1016900067EE877A013344ED027A54ED017A67EE02
:1016A000C77A44ED017ABDE70023B1F5807F018060
:1016B00043602AD00DD8402929D006D810292AD035
:1016C000202926D04FF0FF3319E08029FAD1134AA0
:1016D0000FE0B1F5006F14D007D8B1F5007F12D03C
:1016E000B1F5806FEED10E4A03E0B1F5805FE9D12C
:1016F0000C4A9189818191685268816042601846E4
:101700007047094AF5E7094AF3E7094AF1E7094A48
:10171000EFE7094AEDE7094AEBE700BF505805003B
:1017200040580500A058050070580500B058050045
:1017300080580500C0580500905805006058050005
:101740002DE9F04F2DED108B8FB09FEDB05A019029
:1017500003910D9204930291029BDA0851010891C2
:10176000019901EB421CD10007916FF01701514321
:10177000182000FB02F40CEB010728200C9407EB67
:10178000421600FB02F430207518069400FB02FBA1
:1017900014013820059400FB02FA05EB421401986D
:1017A0002144DB0001EB421800F1040E4FF0000968
:1017B000DCED007A1EED017A97ED006AD8ED003A73
:1017C000D5ED004AD1ED002A77EE276A37EE677A29
:1017D000D6ED007A76EE275A36EE676AD4ED007AB7
:1017E00034EEA74A74EEE74A72EEA37A36EEC40AE4
:1017F00075EEE70A76EE846A75EEA77A72EEE32A52
:1018000076EEA75A76EEE76A4EED015ACCED006A05
:10181000DCED017A9EED004AD7ED013AD6ED016A82
:1018200095ED013A98ED012A74EE275A34EE674A95
:1018300073EEA67A73EEE66AD4ED013A73EE231ADC
:1018400073EE633A91ED013A33EE021A33EE423A07
:1018500035EEE12A75EEA15A77EEC11A77EE817A5C
:1018600035EEA71A75EEE75A70EE217A8EED001A62
:10187000CCED015AC5ED007A70EE615A72EE607AD5
:10188000C4ED005AC5ED017A70EE827A9C44C4ED35
:10189000017A76EE627A36EE226A76EEC32A76EE28
:1018A000836A67EE857A26EE056A62EE852A66EE21
:1018B000856A37EE673A74EEC65A37EE277A74EEC9
:1018C000867A74EE624A34EE226A33EEE64A73EEAA
:1018D000A66A1D4477EE263A37EE667AC7ED003ADF
:1018E00088ED007A33EE047A33EE443A86ED007ADE
:1018F00036EE677A77EE867A81ED003A87ED017AE7
:10190000C8ED017A74EEE57A75EEA45AC6ED017A57
:10191000C1ED015A02988144039848451F441E4472
:101920001C44194498449E443FF642AF072A40F2B3
:101930006F810198089901440B91079901440A911C
:101940000699014409910599014408910BEB0001A6
:1019500007910C99014406910AEB000105910124BD
:101960000021049801440D9800EBC105D5ED001A43
:1019700005EBC10595ED008A05EBC105D5ED004AE3
:1019800005EBC10595ED009A05EBC105D5ED003AD3
:1019900005EBC1056FF02F00D5ED000A05EBC10581
:1019A00000FB0156019896ED011AD5ED002A95ED40
:1019B000012A00EBC40A0B9800EBC4090A9800EB5B
:1019C000C408099800EBC40E089806EBC106D6EDD2
:1019D000018A00EBC40C06EBC106079896ED014A9C
:1019E00006EBC106D6ED019A00EBC40706EBC10673
:1019F000069896ED013A06EBC10696ED010A00EB5A
:101A0000C4060598A34600EBC40501E0F304353F86
:101A1000D9ED007AD8ED006A9EED007ADAED00AAE1
:101A200096ED006A36EEC7DA3AEEA7AA7AEEE7AA92
:101A300076EE877ADCED006A97ED007A76EE875ACB
:101A400036EEC7BAD5ED006A36EE267A76EE666ACD
:101A500077EEC7EA3AEE656A77EE877A3AEE25AA1C
:101A6000DAED015A3AEE277A3AEE67AA8AED007A61
:101A7000D9ED017A98ED017A35EEA7FA35EEE7CA8D
:101A8000DEED017A77EE67CA37EE27EA9CED017A40
:101A9000D7ED017A77EE67BA77EE27DAD5ED017ADE
:101AA00096ED017A77EE275A37EE677A7FEE6D7AF8
:101AB0007FEE2DDA3EEE65FA3EEE25EA76EE0F5A1F
:101AC00036EE4F6A3DEE8EFA7DEECEDA37EEEEEA76
:101AD0007EEEA77A69EEADEA49EE0AEA29EE8AAA15
:101AE00019EE2DAA8AED01FA89ED01AA28EE8EAA37
:101AF00008EE25AA9A4468EEA55A58EE0E5AC9ED8A
:101B000000EACCED015A60EE275A40EE865A99441D
:101B100020EE066A10EEA76A8CED00AAC7ED005A07
:101B20003DEE66AA7CEEC75A7DEE266A3CEE877AC9
:101B300087ED016A66EE856A25EE856A2AEE05AABA
:101B400027EE057A7BEE66CA7CEE065A7BEE266AA5
:101B50003AEECADA3AEE8AAA7BEEC7AA3BEE877A59
:101B60003CEE46BA75EEE6BA3AEE076A7AEE477A86
:101B700076EEA56A3DEE2A7A3DEE6AAA7CEE8B5A95
:101B80007BEE6CAA21EE2BBA01EE86BA9C441F4470
:101B900021EE066A11EEAB6A88ED00BA88ED016AA3
:101BA00022EE266A02EEA76A984485ED006A22EECC
:101BB000276A63EE2A7A43EE877A12EEA66A23EE4C
:101BC000077A85ED016ACEED007A64EE257A44EE5F
:101BD0008A7A1D4413EEAA7A8EED017AC6ED007A58
:101BE00064EE0A7A54EEA57A9E44C6ED017A029814
:101BF0008344039858451E443FF60AAF0134A2427D
:101C00007FF4AFAE049B0292DB009BB20493A3E58A
:101C10000FB0BDEC108BBDE8F08F00BFD1ED007AA6
:101C200091ED017A038877EEA77A37EE077A10B53F
:101C300037EE876A77EEC77A4469F6EE006A26EED9
:101C4000266A67EEA67A013B04F1100001F1100448
:101C500001EBC30182ED006AC2ED017A083910324E
:101C600091ED027A54ED023A91ED034A54ED017A76
:101C700050ED025A50ED014A37EE635A34EE276AAE
:101C800037EE237A77EEC47A05EE857A013B002B96
:101C900044EE857A00F1080002F1080204EE867A2B
:101CA00004F10804A1F1080145EEC67A27EE267A70
:101CB00067EEA67A02ED047A42ED037AD0DC10BD1D
:101CC000D1ED007A91ED016A038837EE867A77EEDE
:101CD000C67AF6EE006A10B527EE267A446982EDE0
:101CE000007A67EEA67A013BC2ED017A04F10800A2
:101CF000083201F1080401EBC301002B02F10802D4
:101D000000F1080004F10804A1F1080100DC10BD95
:101D100091ED027A54ED023A91ED034A54ED017AC5
:101D200050ED025A50ED014A33EEC75A34EE276A9D
:101D300037EE237A77EEC47A05EEC57A013B44EE9E
:101D4000857A04EEC67A45EEC67A27EE267A67EEE5
:101D5000A67A02ED027A42ED017ACEE72DE9F04152
:101D600005460F4616461C464BB1FFF7A9FF224613
:101D7000314628460123BDE8F041FFF72CBC22463E
:101D80000123FFF728FC324639462846BDE8F041DA
:101D9000FFF744BF10B5044640B11021FFF784FCA3
:101DA00018B920232382034B636110BD4FF0FF302D
:101DB000FBE700BFC00E050010B5044640B120216E
:101DC000FFF772FC18B940232382034B636110BDF7
:101DD0004FF0FF30FBE700BF4057050010B5044649
:101DE00040B14021FFF760FC18B980232382034BE8
:101DF000636110BD4FF0FF30FBE700BFC0E8040097
:101E000010B5044648B18021FFF74EFC20B94FF4CD
:101E100080732382024B636110BD4FF0FF30FBE7FC
:101E2000C00A050010B5044650B14FF48071FFF7A9
:101E30003BFC20B94FF400732382034B636110BD58
:101E40004FF0FF30FBE700BF404F050010B50446E0
:101E500050B14FF40071FFF727FC20B94FF48063B5
:101E60002382034B636110BD4FF0FF30FBE700BFDF
:101E7000C0D8040010B5044650B14FF48061FFF79C
:101E800013FC20B94FF400632382034B636110BD40
:101E90004FF0FF30FBE700BFC0EA040010B5044676
:101EA00050B14FF40061FFF7FFFB20B94FF48053AE
:101EB0002382034B636110BD4FF0FF30FBE700BF8F
:101EC000400F0500B1F5007F1AD00ED8802919D037
:101ED00006D8202918D0402918D04FF0FF3070477D
:101EE000B1F5807FF9D10C4B09E0B1F5006F0FD04F
:101EF000B1F5805F0ED0B1F5806FEED1074B18477A
:101F0000074BFCE7074BFAE7074BF8E7074BF6E709
:101F1000074BF4E7074BF2E7011E00004D1E0000DF
:101F2000251E0000DD1D0000951D0000B91D0000EC
:101F3000751E00009D1E00002DE9F043DDE90B84B5
:101F4000A568AC07DDE9097E03D1BDE8F04300F0E8
:101F50003EB86FF00200BDE8F0838B68C06858435C
:101F60004B6858438000704730B5D86884078BB001
:101F700028D10C6934BB4C6924BB8D68012D21D15B
:101F8000CD68012D1ED14D6A08950D6A07954D68E3
:101F900006950968CDE904011399C9680391D3E94D
:101FA00001011B684143594302915368019313682F
:101FB0000093129A149B10990E9800F0E2FC2046B0
:101FC0000BB030BD6FF00200FAE7002070472DE93A
:101FD000F04F2DED028BB3B09446439C3F9EE768D3
:101FE000D0F800B01868DD681F90BAB208EE102A69
:101FF0000A6920924A6921928A682292CA682392C9
:102000004A6814920A6A15924A6A1692DCF800200D
:102010001792DCF804201892A28819921A89D6E93E
:1020200001600B929B8813931346139A1FFA85FA4B
:1020300053430AFB03F3289323891A93BBB21B93E0
:10204000DDE91932534318EE102A53432993B3B2F2
:102050001C9383B21293129A1C9B10FB06F05A43F6
:1020600010FB05F502FB0AF3A8B226900BEB8300E8
:1020700024904FEA4A000990C3F38F0305F0030050
:102080001E9000EB83001D90409800EB83000BEB4B
:10209000C3032D930B9B2A900AFB03F32793099B01
:1020A00053432B93129A099B53432C9300230D9374
:1020B000B1F9003008EE903ABDF87C300D9A9A42A2
:1020C000C0F28680002033B0BDEC028BBDE8F08FFB
:1020D000BDF88830BDF88020109ECDF8388009FB0F
:1020E00003F39B1A1193119A259B9C183E9B1C9AF3
:1020F0000AFB04330C93334613442F932F9BB342B4
:102100005EDC2B9B9844249B434518D10F9B069380
:10211000429B0593269B0493BDF958300393BDF968
:1021200054300293149B0193179B009318EE102ACE
:10213000189B4098594600F074F9D8460F9009F161
:1021400001091A9B9945C3DB0A9B01330A930A9B39
:10215000199A934241DA0A9ABDF88C305343BDF87C
:1021600084209B1A1093109A0B9B534325934FF096
:102170000009E6E7139BB34204D9002D02DB0B9B59
:102180009D4215DB099A002138462EF0C9FF099BB4
:1021900001351F4454442E9BAB42EBDC0E9B2C9A22
:1021A00013440E93279A0C9B134401360C93A5E716
:1021B00018EE903A52463946204601F0A2FAE6E778
:1021C000119D129A0C9C0E9F2B4613442E93E2E70E
:1021D000449B0F93D8460023B8E7D84540F087804A
:1021E0003E9B289A13443E93299A449B134444935C
:1021F0000D9B01330D935FE7429B002B46D053F8B4
:102200002540DDF82880D94647453B4640D11E99F8
:102210002D9A39448B4263D10A9B1D9A13440A9329
:10222000189B53F8250020EAE0739C40179B00227E
:1022300053F82510164690424FF08043C4FB0136F8
:10224000D8BF42420121DB0F914043EA46060139E3
:1022500056FA02F206EA01044FEA610148BF013171
:10226000149B8C42C8BF01321A44159B9A42B8BFD6
:102270001A46169B9A42A8BF1A460F9B5A551D9B99
:1022800001351F441B9B9D42B6D1A9E7429CB8E78C
:102290004146042231A82EF01BFF319E49464FEAE9
:1022A000362331A82FFA83F32FFA86F6C3EA2642A3
:1022B0000C920422C6EA034608F104082EF008FF37
:1022C000319B26FB0344042209EB020131A82EF0C6
:1022D000FFFE09F10809319B0C9A22FB034493E7A6
:1022E00013F9010B32F8026B16FB004492E7409B96
:1022F0002A9F0A930025C5E78B68C06858434B683E
:102300005843800070472DE9F74F0C9E0096DDE999
:102310000D6701970F69DDE90FBADDE911C986463E
:102320000C4690461D46AFB94F699FB9DF68BF079D
:1023300010D18F68012F0DD1CF68012F0AD1B76856
:10234000012F07D17768012F04D103B0BDE8F04F0A
:10235000FFF70ABEDCF80430012B1ED16B68012B9D
:102360001BD17368012B18D1DCF808309B0714D1FE
:102370002B68012B11D1019BCDE90D63009B0C93C0
:1023800042462B4621467046CDE911C9CDE90FBA28
:1023900003B0BDE8F04FFFF7CFBD019BCDE90D6362
:1023A000009B0C9342462B4621467046CDE911C94D
:1023B000CDE90FBA03B0BDE8F04FFFF708BE10B487
:1023C0000446084611462269A2B9626992B9C268F8
:1023D00092070FD1A268012A0CD1E268012A09D123
:1023E0008A68012A06D14A68012A03D15DF8044BA4
:1023F000FFF7EBBD5A68012A0FD14268012A0CD1C0
:102400004A68012A09D19B689B0706D10368012B02
:1024100003D15DF8044BFFF7A0BD5DF8044BFFF757
:102420006BBF2DE9F04F9BB08A460293BDF99830FF
:102430000393BDF99C300493BDF8A03000932A9B10
:10244000099213440C93009B0E9001EB43030193FC
:10245000009B03F003031093009B10999B089A00C4
:102460001492009A561806EB83020D9200EB830239
:102470000592099A520815920AEBC3020F92019A2B
:1024800002EBC3030A9304464FF001084FF0000922
:10249000159B994540F08B804FEA490305932A9B91
:1024A00003EB4907DDE90D2309FB0236099BDB0736
:1024B0004FEAC90875D5299B53F83940B1462546DE
:1024C0000F9B534540F0DD81149B1E44009B03F09D
:1024D000030333449E4240F01482029B53F80800E9
:1024E00020EAE0739C40249B002253F80810164613
:1024F00090424FF08043C4FB0136D8BF42420121D5
:10250000DB0F914043EA4606013956FA02F206EA29
:1025100001044FEA610148BF01318C42259B0599B6
:10252000C8BF01321A44039B9A42B8BF1A46049BA3
:102530009A42A8BF1A462A9B5A54029B53F8080095
:1025400020EAE0739D40249B002253F808404FF09E
:1025500080411346C5FB041390424FEAD17141EA12
:102560004301D8BF424201239340013B51FA02F29A
:1025700001EA03004FEA630348BF01339842259BF9
:102580000599C8BF01321344039A9A42B8BF1A464C
:102590001346049A9A42A8BF1A4613460C9A5354FB
:1025A0000137099B3B4418461BB0BDE8F08F009BE8
:1025B0001694E3180B93299B53F8396053F828B00D
:1025C000019B0893CDE9066B57460F9BBB4240F039
:1025D000DC80059B009A109CD1180A9A089203EBA4
:1025E000040E734540F03681029B53F8390020EA0F
:1025F000E0739E40249B002253F839101446904209
:102600004FF08043C6FB0134D8BF42420121DB0FAB
:10261000914043EA4404013954FA02F204EA010504
:102620004FEA610148BF01318D42259BC8BF01328D
:102630001A44039B9A42B8BF1A46049B9A42A8BF09
:102640001A462A9B03F81920029B53F83900069B6F
:1026500020EAE075AB401D46249B002253F8391058
:10266000144690424FF08043C5FB0134D8BF42422C
:102670000121DB0F914043EA4404013954FA02F28C
:1026800004EA01054FEA610148BF01318D42259BF3
:10269000C8BF01321A44039B9A42B8BF1A46049B32
:1026A0009A42A8BF1A460C9B03F81920029B53F8C4
:1026B000280020EAE0730BFA03FB249B002253F866
:1026C0002810144690424FF08043CBFB0134D8BF12
:1026D00042420121DB0F914043EA4404013954FA9C
:1026E00002F204EA01054FEA610148BF01318D425F
:1026F000259BC8BF01321A44039B9A42B8BF1A46B1
:10270000049B9A42A8BF1A462A9B03F80820029B02
:1027100053F82800079B20EAE074A3401C46249B42
:10272000002253F82810154690424FF08043C4FB16
:102730000135D8BF42420121DB0F914043EA4505F4
:10274000013955FA02F205EA01044FEA610148BF76
:1027500001318C42259BC8BF01321A44039B9A4227
:10276000B8BF1A46049B9A42A8BF1A460C9B03F8AE
:1027700008200D9A169B13441C46059B134409F12F
:102780000109059308F1020882E63946042219A8D6
:102790002EF09EFC199B08991293042219A82EF082
:1027A00097FC199B11932146042219A82EF090FC46
:1027B000199D0B994FEA352219A82FFA82F22FFAA8
:1027C00085F5C2EA2543C5EA0245042217932EF097
:1027D0007FFC0B9B199A04330B934FEA322104348C
:1027E0002FFA81F12FFA82F2C1EA2243C2EA0142B2
:1027F0001393129B25FB0366119B069925FB03157A
:10280000129B22FB03B312930799119B22FB031324
:102810000422B91819A807932EF05AFC089BDDF87A
:1028200064B00422991819A82EF052FC089B199A3A
:10283000083308930837179B23FB0B6623FB0253CF
:102840000693DDE9121323FB0B1B079923FB0213ED
:102850000793BAE6089A13F901CB32F9024B0892B2
:10286000069A11F9010B37F9025B14FB0C22069250
:10287000079A14FB002215FB0C6615FB00BB0792A0
:10288000AFE65146042219A82EF022FC199B0199AB
:102890000693042219A82EF01BFC4946042219A80D
:1028A000DDF864B02EF014FC199A09F104094FEA1E
:1028B00032212FFA82F22FFA81F1C1EA2243C2EAD1
:1028C00001420793069B22FB034422FB0B55042283
:1028D0000AEB020119A82EF0FBFB019BDDF864B0A6
:1028E0000422991819A82EF0F3FB019B08330193D9
:1028F0000AF1080A079B23FB0B44199A23FB025594
:10290000DEE516F9012B3AF8021B0A9811FB024486
:1029100030F8021B0A9011FB0255DBE52DE9F04768
:102920008AB0DDE91279DDE917A81D680C46164664
:102930001DB928460AB0BDE8F08723690893E3680B
:102940000793DAF80C300693D9F8003005937368D2
:10295000049333680393A368029363680193236825
:10296000009338464346169A149900F030FCD9F883
:1029700000301F44DAF80C30013D9844D8E70020BD
:1029800070472DE9F04F9DB01193289B0D925B107D
:1029900013932A9B299A14915B001293139B109016
:1029A0005343119A02EB43032A9A0E932A9B002A5F
:1029B00023F00F03B8BF00230C9313460C9A0C9915
:1029C0009B1A2A9A8A42B8BF002313441793299B63
:1029D0005B001693149B009304230593002301933B
:1029E000019A119B13440793299B013B934240F3A7
:1029F0007583009B00985A1E00231946C0F1010000
:102A000005E012F9014F21442A9C145723442A9DC2
:102A10008418AC42F5DB2B9A4A4302922B9A53431B
:102A200003930D9B5BB1019A53F82230029A1A442A
:102A300002920D9B059A9B58039A1A4403920C9B91
:102A4000009A013BD3180F93109B0493139B089398
:102A50002A9B0F3B1893089B002B00F0F8812A9AC1
:102A6000009B13440B93049B13440A93009B09930C
:102A7000049B0693DDE902394D461C460BE109999A
:102A8000199304221BA82EF023FB0699DDF86CA0F5
:102A90002FFA8AF704221BA82EF01AFB0B99DDF8F7
:102AA0006C802FFA88F604221BA82EF011FB1B9ACB
:102AB0002FFA9AFA2FFA98F826FB07442FFA82F396
:102AC000159328FB0A442FFA92FB26FB035528FB9B
:102AD0000B5804220A991BA82EF0FAFA1B9E2FFA13
:102AE00086F22FFA96F6199B22FB0737159B22FBDD
:102AF000039926FB0A7A099B042299181BA82EF039
:102B0000E7FA1B9F26FB0B990B9B2FFA87F50422F4
:102B100099181BA82EF0DCFA069B1B9E042299181C
:102B20001BA82EF0D5FA1B9A2FFA82F12FFA97F7ED
:102B30002FFA92F221FB05442FFA86F322FB074479
:102B40002FFA96FB21FB0388159322FB0B880A9B27
:102B5000042299181BA82EF0BBFA1B9E2FFA86F2AE
:102B60002FFA96F622FB05A5159B22FB039926FB5F
:102B70000757099B042203F108011BA82EF0A8FAAD
:102B8000DDF86CA026FB0B960B9B2FFA8AF903F15C
:102B9000080104221BA82EF09BFA069B1B9D03F143
:102BA000080104221BA82EF093FA1B9A2FFA82F137
:102BB0002FFA9AFA2FFA92F221FB09442FFA85F3A1
:102BC00022FB0A442FFA95FB21FB0385159322FB78
:102BD0000B550A9B042203F108011BA82EF078FA7A
:102BE0001B992FFA81F22FFA91F822FB0977159B96
:102BF00022FB036628FB0A7A099B042203F10C01DD
:102C00001BA82EF065FA099B1B9F1033099328FB24
:102C10000B680B9B2FFA87F603F10C0104221BA80B
:102C20002EF056FA069BDDF86C9003F10C0104229D
:102C30001BA82EF04DFA069B103306931B9B2FFA10
:102C400083F22FFA97F72FFA93F322FB06442FFA19
:102C500089FB23FB07442FFA99F922FB0B5523FB31
:102C600009550A9B042203F10C011BA82EF030FA2F
:102C70001B9A2FFA82F12FFA92F221FB06AA21FB6E
:102C80000B8822FB07A322FB09890B9A10320B92B7
:102C90000A9A10320A920499069A521A1899914285
:102CA0003FF7EDAE0C99049A0F980A441646511E50
:102CB0000C9A2A9FBA42C0F2B780179A0199B218AB
:102CC0000492269A52F821200692279A069E52F8DC
:102CD00021204FF0000E22EAE277724504FA07F451
:102CE00070464FF08041D8BFC2F1000EC4FB061001
:102CF0004FF0010CC90F0CFA0EFC0CF1FF3C41EA3D
:102D000040014FEA6C0B01EA0C0051FA0EF14CBF86
:102D10000BF101025A4690420598269A12580992E0
:102D2000279A099E10584FF0000420EAE07AC8BFA5
:102D3000013105FA0AF5A042A0464FF08042C5FBDA
:102D40000628D8BF44420120D20FA040013842EAF1
:102D500048024646451002EA000822414CBF6E1C5C
:102D60002E46B045069E03FA07F74FF080484FF015
:102D70000003C7FB06834FEAD878099F48EA430857
:102D800009FA0AF94FF080434FF00006C8BF01323C
:102D900008EA0C0CC9FB073658FA0EF848BF0BF1CD
:102DA000010BDB0FDC4543EA460300EA0300C8BF22
:102DB00008F10108234148BF0135A8422C98C8BF3B
:102DC000013301440244034480442D988142B8BF3A
:102DD00001468242B8BF02468045B8BF8046834262
:102DE000B8BF03462E988142A8BF014607980170DC
:102DF0002E998A42A8BF0A4642702E9A2999904578
:102E0000A8BF904600F801800A462E9901328B42F5
:102E1000A8BF0B468354169A034613440793089B96
:102E2000013B0146089316E610F901EF2A9F10F9BD
:102E300007C011F9017F17FB0E4417FB0C552A9FA1
:102E4000CF5701321EFB07331CFB079931E7289B44
:102E5000D80777D5009B2A9A049D9E181C46A2F19C
:102E60000F0B009BE31A9B457ADC0C9A049B1344DE
:102E7000049A56422A999A19914200F31D81019AA7
:102E8000279B53F82240029B24EAE47083401846B3
:102E9000269B53F822100022154694424FF080439F
:102EA000C0FB0135D8BF62420121DB0F914043EAEC
:102EB0004505013955FA02F205EA01004FEA6101C0
:102EC00048BF01318842279B059905985B580399B3
:102ED00023EAE37401FA04F10C462699C8BF0132D3
:102EE000002B0858DCBF5B4208934FF0804100255F
:102EF000C4FB00150898089C01238340C90F41EAD0
:102F00004501013B01EA030021414FEA630348BF49
:102F1000013398422C9BC8BF01311A4419442D9BA0
:102F20009A42B8BF1A469942B8BF19462E9B9A4298
:102F3000A8BF1A460E9B1A702E9B9942A8BF19462D
:102F40000E9B5970009B129A13440093019B02330D
:102F500001930E9B02330E93059B083305933FE5C7
:102F6000214604221BA82EF0B3F8314604221BA8E8
:102F7000DDF86C802EF0ACF8294604221BA81B9FBC
:102F80002EF0A6F82FFA88F22FFA87F11B9B2FFA62
:102F900083F92FFA98F82FFA93F32FFA97F70298FC
:102FA00029FB020223FB0828039A29FB012923FBA2
:102FB00007990422A1181BA82EF08AF80422B11840
:102FC0001BA8DDF86CA02EF083F80422A9181BA81A
:102FD0001B9F2EF07DF82FFA8AF12FFA87F01B9BAA
:102FE0002FFA83F22FFA9AFA2FFA93F32FFA97F720
:102FF00022FB018823FB0A8822FB009223FB072780
:10300000042204F108011BA82EF062F806F1080161
:1030100004221BA8DDF86CA02EF05AF805F1080177
:1030200004221BA8DDF86C902EF052F82FFA8AF1DA
:103030002FFA89F01B9A2FFA82F32FFA9AFA2FFAB5
:1030400092F22FFA99F923FB018822FB0A8823FBCD
:10305000007722FB0977042204F10C011BA82EF053
:1030600037F806F10C0104221BA8DDF86CA02EF045
:103070002FF805F10C0104221BA8DDF86C90103428
:103080002EF026F82FFA8AF12FFA89F01B9A2FFAE0
:1030900082F310352FFA9AFA2FFA92F22FFA99F951
:1030A00023FB018822FB0A81029123FB007722FB8C
:1030B000097303931036D4E60F9813F9012B10F916
:1030C000011F0F90029812FB010102912A980F999B
:1030D0000956039812FB01020392CBE6299B129832
:1030E000002B4FEA5302149BACBF1146002100FB9A
:1030F00001330093119B4FEA4202B8BF00221344F0
:103100001A46299BD90717D503F180440D9B013C32
:1031100003EB840E269B03EB8400279B03EB8404C4
:103120002A9B002623EAE3784FF0804CB1464FF00B
:10313000010A289B9E4203DB00201DB0BDE8F08FF2
:103140000D9B002B37D0DEF8005000232A998B42CC
:1031500033DB109B216807684344109321EAE17335
:103160009D4000296346CB46C5FB073BD4BF49427F
:103170000021DB0F0AFA01F543EA4B0B013D0BEA94
:1031800005075BFA01FB4FEA650548BF01352C9B3B
:10319000AF42C8BF0BF1010B9B442D9B9B45B8BFB1
:1031A0009B462E9B9B45A8BF9B46299B82F800B05F
:1031B00001361A44BDE70D9DC7E710992B9FC956EC
:1031C0003944009FFF56013307FB0155BEE72DE947
:1031D000F04F99B00C93229B00921BB2C3EA0349B3
:1031E000239B269A06901CB2269B0F91002AC3F1BE
:1031F0000003C8BF00230893089A04910123934059
:10320000013B09935B100A9301330D93279B279A87
:10321000C4EA04445B000E930C9B02330593279B86
:103220001B091193279B002A23F00F03B8BF00232B
:103230000793079A034613440B93289B013B139370
:103240000C9BC3F1FF2303F57F03FE331493269BEE
:1032500023EAE3731093059A149B1344139A9A423A
:103260006ADC289A289BDDE90E01002A4FEA530305
:10327000ACBF1A46002200FB021201920C9A4FEAE0
:103280004303B8BF00231A44289B0292DB074FD5A3
:10329000009B002B00F0AD811D68279BDDF80480AA
:1032A000069F0F3B069ABA1A934200F3A481279A0D
:1032B000119B002A079A02F1FF31019A0A449146B4
:1032C0000B9A4FEA0313B8BF00239B1A2798D11813
:1032D000884200F30B82269B259823EAE3720023A1
:1032E000194695404FF08042C5FB0021D20F42EABB
:1032F000410226999942DCBF0B465B42012199406D
:10330000013952FA03F302EA01004FEA610148BFB2
:103310000131249A8842C8BF01331344299A934249
:10332000B8BF13462A9A9342A8BF1346029A137055
:10333000002019B0BDE8F08F009B002B74D0009ADC
:1033400053F8086B55680093279A049B1344029323
:10335000049B0393069B0193A2F10F031293069A19
:10336000019B9B1A129A9A4261DC079B049A0B9963
:10337000013B1344079AA2EB010C279801EB0C02C6
:10338000904200F32681109B25990A989E400022C6
:103390004FF08043C6FB0132DB0F43EA4203099A38
:1033A00003EA0201089A53FA02F20D9B58BF034642
:1033B0009942109B259805FA03F54FF000014FF054
:1033C0008043C5FB00314FEAD37343EA41030999B7
:1033D0000A9D03EA01000899C8BF01320B410D990B
:1033E00058BF294688422499C8BF01330A440B4478
:1033F00029998A42B8BF0A468B42B8BF0B462A9920
:103400008A42A8BF0A46059901F8022C2A9A9342DB
:10341000A8BF134601F8013C0E9A049B1344049381
:103420000B460233059316E7009D2E468CE7039961
:10343000042217A82DF04CFE0199DDF85CA024FAB7
:103440008AF8042217A82DF043FE179F029929FA43
:1034500087FB042217A82DF03BFE4FEA3A2A179A61
:1034600024FA8AFA4FEA372729FA87F72BFB0866EE
:1034700024FA82F3159327FB0A66039B4FEA32284E
:103480000422991817A82DF023FE24FA88F8DDF8F5
:103490005CA0159B2BFB035527FB0855019B24FAC9
:1034A0008AF80422991817A82DF012FE029B179F84
:1034B00029FA87FB0422991817A82DF009FE4FEA74
:1034C0003A2A179A24FA8AFA4FEA372729FA87F70D
:1034D0002BFB086624FA82F3159327FB0A66039BED
:1034E0004FEA322803F10801042217A82DF0F0FD5D
:1034F00024FA88F8DDF85CA0159B2BFB035527FB0D
:103500000858019B24FA8AFB03F10801042217A83A
:103510002DF0DEFD029B179F042203F1080117A87E
:103520002DF0D6FD4FEA3A2A179A24FA8AF529FA9D
:1035300087FA4FEA372729FA87F72AFB0B6624FA1E
:1035400082F3159327FB0565039B4FEA322B03F1AA
:103550000C01042217A82DF0BBFD24FA8BFB039B62
:10356000179E10330393159B2AFB038327FB0B3B0A
:10357000019B24FA86FA03F10C01042217A82DF00E
:10358000A7FD019B179F29FA87F810330193029B2F
:10359000042203F10C0117A82DF09AFD4FEA3727FA
:1035A000179B29FA87F24FEA362624FA86F628FB7B
:1035B0000A5524FA83F722FB06564FEA332524FAEC
:1035C00085F528FB07BB22FB05B5029B1033029350
:1035D000C5E6229811F9012B239F024413F9010F2C
:1035E000384402FB006627981856384402FB005501
:1035F000C3E6009D51E64146042217A800932DF032
:1036000067FD3946042217A8179E24FA86FB2DF081
:103610005FFD179929FA81FA4FEA36264FEA3121E0
:1036200024FA86F629FA81F12AFB0B5521FB06556F
:10363000042208EB020117A82DF04AFD0422B91854
:1036400017A8179E24FA86FB2DF042FD179A29FA37
:1036500082FA4FEA36264FEA322224FA86F629FA0F
:1036600082F22AFB0B5A22FB06AA042208F1080167
:1036700017A82DF02DFD042207F1080117A8179DAA
:1036800024FA85FB2DF024FD179A29FA82F64FEAD9
:1036900035254FEA322224FA85F529FA82F226FBF3
:1036A0000BA622FB0566042208F10C0117A82DF0D9
:1036B0000FFD07F10C01042217A8179D24FA85FAC3
:1036C0002DF006FD179929FA81F208F1100810373C
:1036D0004FEA35254FEA312124FA85F529FA81F19F
:1036E00022FB0A6621FB0565009BDBE5239819F99F
:1036F000011F229C014412F9010B204400FB0155DB
:10370000E4E52DE9F04F85B04FEA92091F460446E3
:10371000C3EA03430E461546CA46009388468346CD
:10372000BAF1000F0BD104EB890405F0030506EB99
:10373000C9062544AC4229D105B0BDE8F08F5946F1
:10374000042203A82DF0C4FC039A009B4FEA322107
:10375000404623FA81F123FA82F2C1EA2243C2EA07
:10376000014203A90392042201932DF0B1FC04222B
:10377000019B039308EB020003A92DF0A9FC0BF1B8
:10378000040B08F108080AF1FF3AC9E714F9013BF4
:103790003B4426F8023BCDE72DE9F04F9BB09568FE
:1037A0001593DDE9243403956568A4680D944C688D
:1037B00004940C6805945C689B680F941093D1E99D
:1037C000023406930B6911934B691293D3685268C4
:1037D00001680E95A2180B920D9A079122EAE272E7
:1037E0005A43C4F1000AA14613924FF0000B0E9AFF
:1037F000934503DB00201BB0BDE8F08F069A0699C5
:10380000BAF1000FC2F10005D4BF4A4600220C9263
:10381000069A0992039A0A440A920C9A039952440E
:103820004A431492269A009200220F9901920B9A11
:103830008A42A8BF0A461992019A0D998A420EDB64
:10384000269A13990A442692049A04999244A9EB61
:1038500002090B9A521A0BF1010B0B92C7E7099A56
:103860001099002DD8BF10460A9AC8BF00208A427E
:10387000A8BF0A469646149A08920C9A02922A18F1
:1038800000211892199A029C944238DA089C189ADE
:103890002244159C0E1A03FB0242179604461EE0B2
:1038A000179E361917D0079EA6F1040800269E42DF
:1038B00013DA9757BC4658F8047F1697169F87FA75
:1038C0008CF7C8F800700136F1E7079F12F90680FF
:1038D00047F8268001369E42F7DB01341A447445CE
:1038E000DEDBAEEB00027045C8BF00221144029A35
:1038F000089C01320292039A14440894C2E74C10C7
:10390000002083420FDC009A05991A440092059A20
:103910001544019A01320192099A521A09920A9A9F
:10392000521A0A9288E7079A119E52F82020002A1C
:10393000CCBF1219121B92FBF1F2B242B8BF324651
:10394000129EB242A8BF3246009E32540130D8E7E0
:10395000880070472DE9F04FA5B094682093DDE909
:103960002E300994446880680A9048680B90086873
:103970000C9058689B6818901993D1E90203D1E91B
:1039800004B10393D568009159425368039A019199
:10399000D31812930A9B149423EAE373A9106B4380
:1039A0000D901C911D9321EAE1739B001693309BAF
:1039B000049300230593059B149A934218DB134646
:1039C0000A9A309E53435D43AC102746002F00F304
:1039D000E480309B24EAE47403EB840405F00305DF
:1039E0002544AC4240F01581002025B0BDE8F08FA1
:1039F0000D9B0D9A049F5B420293019B002B039B3E
:103A0000C8BF002313930D9B1093099B134411937C
:103A1000019A139B1344099A53431F93002306935F
:103A2000069B0A9A934211DB049B1D9A134404934C
:103A30000B9A019B13440193059B01330593039B50
:103A40009B1A0393129B9B1A1293B4E7029B189A3A
:103A5000002B109BC8BF00231793129B9342A8BF53
:103A600013461A93199A119B9342A8BF13461B93AE
:103A7000169BFB181593159A05F00303D3181E9394
:103A80001F9B0F93139B07930023079A1A998A424F
:103A900074DA029A1799089154180F9A1444209ACC
:103AA00005FB04240BE0002B64D12A46214638464E
:103AB0002DF00EFB089B013308932C440123089A38
:103AC0001B998A42EFDB079A0999013207920F9AF4
:103AD0000A440F92D9E75146042223A821932DF0DE
:103AE000F7FA0E99239E042223A82DF0F1FA239AC7
:103AF0000E9B71B250B28142B8BF014661F3070913
:103B000042F3072046F307218142B8BF014661F323
:103B10000F2942F3074046F3074181424FEA2666E8
:103B20004FEA2262B8BF01469642B8BF164661F31B
:103B300017490433504666F31F69042223A90E93E4
:103B4000CDF88C902DF0C4FA219B0AF1040A013BB8
:103B5000002BC0DC169B5A1E159B22441E998B42DB
:103B6000A8D093F9000012F9011F8842B8BF19705C
:103B70000133F3E71C9B0E94BA46E9E70C9A029BCB
:103B800013440293069B01330693109B9B1A1093D8
:103B9000119B9B1A2F44119342E73146042223A81C
:103BA0002DF096FA239B00995AB25A45B8BF5A464F
:103BB00052B28A42A8BF0A4662F3070843F30722BB
:103BC0005A45B8BF5A4652B28A42A8BF0A4662F363
:103BD0000F2843F307425A45B8BF5A4652B28A42A9
:103BE0004FEA2363A8BF0A465B45B8BF5B465BB29A
:103BF0008B42A8BF0B4662F3174863F31F68304639
:103C0000042223A9CDF88C8004362DF061FA013FFF
:103C1000DCE694F90030009A5B45B8BF5B469342FE
:103C2000A8BF134604F8013BDBE600002DE9F04F86
:103C30008FB09B46002308900B9102920093039350
:103C4000009A089B134404931A9B134407930B9AFE
:103C5000039B934202DB0FB0BDE8F08F089B009AF4
:103C60009B5601930123029A9342C0F236810023AE
:103C7000DFF87C829E46029A9645C0F23B81B3FAF9
:103C800083F2934003F10043D91713F1004341F14C
:103C900000015B0843EAC173C2F1230A934A491049
:103CA0005C4202FB0144A3FB02200444904812182A
:103CB00064F10004002C04DA6FF00040121844F1A3
:103CC0000004D20F42EA440202F15A30C21700FB4C
:103CD00001F503FB0255A0FB034214F1804445EBC0
:103CE0000202E40F44EA4204C4F10054002C804A6A
:103CF000A6BF00254FF080424FF0FF35C0FB0425E2
:103D0000002D04DA6FF00044121945F10005D20FBE
:103D100042EA450200EB8202002A754D4FEAE2704A
:103D200002FB01F403FB0044A8BF4FF08045A2FB57
:103D3000030EACBF4FF0000C4FF0FF3C7444401931
:103D400044EB0C04002C4FEAD27604DA6FF0004505
:103D5000401944F10004C00F40EA4400C0F1005093
:103D6000B6EBD07F624E06BF00244FF080464FF086
:103D7000FF34C2FB00642546002D344604DA6FF0A0
:103D80000040341845F10005E40F44EA4504B4F15D
:103D9000005FABBF00204FF0FF306FF00045002503
:103DA00000EA8400B4F1604F80EA0500CBBF4FF019
:103DB000FF35002500244FF00044284060400244B5
:103DC000002A4B484FEAE27602FB01F103FB0611A1
:103DD000A8BF4FF08040A2FB0336ACBF00254FF0D8
:103DE000FF3531441B1841EB050100294FEAD2741D
:103DF00004DA6FF000401B1841F10001DB0F43EAC9
:103E00004103C3F10053B4EBD37F394906BF00200F
:103E10004FF080414FF0FF30C2FB0310002804DA5E
:103E20006FF00043C91840F10000C90F41EA40009B
:103E3000B0F1005FABBF00234FF0FF336FF00041E4
:103E4000002103EA8003B0F1604F83EA0103D5BF8C
:103E500000204FF0FF304FF0004100211840484053
:103E60000244B2F1804FABBF00234FF0FF336FF03D
:103E70000041002103EA4203B2F1404F83EA01030B
:103E8000CBBF4FF0FF31002100224FF000420B402A
:103E9000534048BF164A099356BF4FF080424FF037
:103EA000FF330023CDE90C23012303FA0AF3013B7E
:103EB00005935B100693DFF838E001330A934FF067
:103EC000000C029B9C45C0F28381039B009A013346
:103ED0000393029B1A440092B2E6049A0199D256C7
:103EE0009142B8BF114601910133BCE6C4C3C3C3BC
:103EF000010000C0049A12F90E00019A801A199A62
:103F0000824200F35281189A9040C20FB2EBDB7FDD
:103F10000BBF4FF08041414600224FF0FF32C0FB03
:103F20000B12002A144604DA6FF00042891844F19B
:103F30000004CA0F584542EA440204D1BBF1004FC5
:103F400008BF6FF0004242F07F4CACEB02054FEA35
:103F50004C1C0CF1805C4FF080410024CCFB0C1415
:103F6000002C4FEAEC7604DA6FF00040091844F1B7
:103F70000004C90F41EA4401A1FB0109E41710F153
:103F8000804001FB04FA49EB4A09B9F1000F05DA58
:103F90006FF0004A10EB0A0049F10009C00F40EA37
:103FA000490000F00309801054BF4FF0010A4FF0A0
:103FB000020AD1454FEAD179C8BF01300CFB04F4A5
:103FC000B9EBDC7F01FB064408BF4FF08049ACFB36
:103FD000016716BFC1464FF0000A4FF0FF3A3C445C
:103FE00016EB090644EB0A04002C05DA6FF00049D1
:103FF00016EB090644F10004F60F46EA4406304485
:1040000000286B4FABBF4FF08044444600264FF072
:10401000FF36C0FB0746002E04DA6FF0004024187C
:1040200046F10006E40F44EA46040C44611002D451
:10403000E60748BF01318C44BCF1000F5D48ABBFBF
:104040004FF08044444600214FF0FF31CCFB00414B
:10405000002904DA6FF00040241841F10001E40F58
:1040600044EA410404F1E2444FF080410020524F01
:10407000A4F52524A4F26C748C468246C4FB07CABE
:10408000C5F300664FEADC7C4CEA4A0C45F3006954
:10409000013E09EA0C09494F344089EA04048C4680
:1040A0000646C4FB07C6C5F3406A4FEADC7C4CEA0F
:1040B000460C45F340690AF1FF3A0AEA040A09EAA4
:1040C0000C093F4F89EA0A090E460446C9FB0764FA
:1040D000C5F3806AF60F46EA440645F3806C0AF1A0
:1040E000FF3A0AEA090A0CEA060C364E8CEA0A0C78
:1040F0000C468246CCFB064AC5F3C069E40F44EA8D
:104100004A0445F3C06609F1FF3909EA0C09264063
:104110002D4C86EA090682468946C6FB049AC5F3F9
:10412000007C4FEAD97949EA4A0945F300740CF159
:10413000FF3C0CEA060C04EA0904DFF8909084EADC
:104140000C0482468C46C4FB09CAC5F340764FEA8C
:10415000DC7C4CEA4A0C45F34079013E264009EAF2
:104160000C0C8CEA060CF224CCFB0410C5F3807A0C
:10417000C90F41EA400145F380750AF1FF3AB2FAEE
:1041800082F20AEA0C0A5209294081EA0A01501E09
:10419000524222F0004A014081EA0A0A4FEA2A32DA
:1041A0001AF4006F18BF013213440EF1010E62E5DC
:1041B000ABAAAA2A94A8F5707BBEAF63F2CBA24D3E
:1041C0006CAC162FA4AA5211B72A580211FE0A008D
:1041D000049B13F90C10019BC91A199B9942C0F258
:1041E0006B81189B9940CB0FB3EBDB7F0BBF4FF07C
:1041F0008043734600224FF0FF32C1FB0B32002A8E
:10420000104604DA6FF000429B1840F10000DA0F0C
:10421000594542EA400204D1BBF1004F08BF6FF09C
:10422000004242F07F46B31A760106F180564FF005
:1042300080410024C6FB0614002C4FEAE67504DA20
:104240006FF00040091844F10004C90F41EA44012D
:10425000A1FB0108E41710F1804001FB04F948EBD1
:104260004908B8F1000F05DA6FF0004910EB0900BA
:1042700048F10008C00F40EA480000F00308801031
:1042800054BF4FF001094FF00209C8454FEAD178F9
:10429000C8BF01307443B8EBD67F01FB054408BFAB
:1042A0004FF08048A6FB015716BFF0464FF00009BB
:1042B0004FF0FF393C4415EB080544EB0904002C92
:1042C00005DA6FF0004815EB080544F10004ED0F26
:1042D00045EA440528440028784FABBF4FF080449E
:1042E000744600254FF0FF35C0FB0745002D04DA6A
:1042F0006FF00040241845F10005E40F44EA45043E
:104300000C44611002D4E00748BF01310E44002E76
:104310006B48ABBF4FF08044744600214FF0FF3133
:10432000C6FB0041002904DA6FF00040241841F177
:104330000001E40F44EA410404F1E2444FF08041FB
:104340000020604FA4F52524A4F26C740E4681462B
:10435000C4FB0769C3F30065F60F46EA490643F359
:104360000068013D08EA06082C40574F88EA04041B
:104370000E460546C4FB0765C3F34069F60F46EADF
:10438000450643F3406809F1FF3909EA040908EAE0
:1043900006084E4E88EA09080D460446C8FB065436
:1043A000C3F38069ED0F45EA440543F3806609F1E4
:1043B000FF3909EA08092E40454D86EA09060C46F0
:1043C0008146C6FB0549C3F3C068E40F44EA4904CB
:1043D00043F3C06508F1FF3808EA060825403D4C64
:1043E00085EA080581468846C5FB0489C3F3007643
:1043F0004FEAD87848EA490843F30074013E2E405A
:1044000004EA0804DFF8D080744081460E46C4FBFD
:104410000869C3F34075F60F46EA490643F340784E
:10442000013D254008EA06066E40F224C6FB041052
:10443000C3F38079C90F41EA400143F3807309F166
:10444000FF39B2FA82F21940520909EA0609501EF0
:1044500081EA09015242014022F00040DDE90C32BC
:1044600048400999C1FB0032002A144604DA6FF073
:1044700000429B1844F10004059A06980A99DB0F44
:1044800043EA44031A4053FA0AF358BF01468A42EA
:10449000C8BF0133803B13F17F0F08DB7E2B09DCA3
:1044A0005BB2079A02F80C300CF1010C09E56FF0D1
:1044B0007F03F6E77F23F4E78023F2E7ABAAAA2A7B
:1044C00094A8F5707BBEAF63F2CBA24D6CAC162FF7
:1044D000A4AA5211B72A580211FE0A0010B50446C8
:1044E000006818B1237B0BB100F0CBFE204610BD55
:1044F000FEE700002DE9F04790B01546189C6708CC
:104500007A1C9A4280460E4640F0A2808C4252D8D5
:10451000002850D0002302908DF814308146029874
:104520000123CDE90334002800F09080B9F1000F99
:104530000FD1A64228BF26464FEA860A5246414678
:104540002CF0C6FD0298A61BB200494650442CF040
:10455000E7FD202C0DF1280938D0402C36D0802CD6
:1045600034D0B4F5807F31D0B4F5007F2ED0B4F5CF
:10457000806F2BD0B4F5006F28D0B4F5805F25D0C4
:1045800000232046CDF800901A461946029E00F0FE
:1045900023FD0446002859D031462A4600F0E0FDAC
:1045A000204600F06EFE002602A8FFF797FF304677
:1045B00010B0BDE8F0870121A00000F060FE0123EB
:1045C00002908DF814304FF00009A8E7A1B24846D8
:1045D000FDF778FC06460028E6D10121A00000F096
:1045E0004EFE4FF00108CDE90784024606908DF893
:1045F000248028B906A8FFF771FFA6F2EA36D3E7B0
:10460000029933464846FDF7A9FB069B00211A682C
:104610002A60696005EBC702586810605160083372
:1046200008354246974203F1080305F1080509D908
:1046300053F8081C45F8081C53F8041C45F8041CE2
:104640000132EFE706A8FFF749FFADE7014EABE700
:10465000014EACE716FCFFFF11FCFFFF000000005D
:104660002DE9F04F2DED048B4D0887B005F10109C0
:1046700002900E464FEA81084FEAC900012100F07E
:10468000FEFD0746F8B10121404600F0F8FD044662
:10469000B0B1029B0393AB000493029B024600EB74
:1046A000080100EB850C624503F108030ED053F8B6
:1046B000080C42F8040B53F8040C41F8040DF2E71F
:1046C000384600F0DEFDDFF8108117E0F30706D56D
:1046D000029B9844049B58F8042CE3181A60009637
:1046E0004B463A4631462046FFF704FF804658B114
:1046F000204600F0C6FD384600F0C3FD404607B036
:10470000BDEC048BBDE8F08F70002BF043FD41EC55
:10471000190BBB46C24650462BF03CFD2CA3D3E9F7
:1047200000232BF0B1FD53EC192B2BF0D7FE2CF00E
:1047300083F8059030F004FA059B08EE100A18463D
:1047400030F0C8FADBED017A07EE100A5B4667EE3F
:10475000277A93ED007A039BE7EE087A0AF1010AC3
:10476000D1450BF1080BE3EC017A0393D3D8049BFA
:1047700003F1040A029B751B534407EBC5059A46D7
:10478000B145B5D248462BF005FD11A3D3E900236E
:104790002BF07AFD53EC192B2BF0A0FE2CF04CF8EB
:1047A000834630F0CDF908EE100A584630F092FA00
:1047B00055ED017A07EE100A083D67EEC77A95EDD0
:1047C000007AE7EE087A09F10109EAEC017AD7E705
:1047D000182D4454FB21094016FCFFFF2DE9F04F32
:1047E0002DED088B89B01646DDE91A250F46D2F863
:1047F00004A0116803910AFB01F9BAF1010F06FB4D
:1048000003F1044600EBC9094FEAC10816D103467B
:1048100097E8030083E80300083399454744F7D13C
:1048200005F584730593039B023B032B00F28482FE
:10483000DFE813F01B005600F900960108320492DD
:10484000039A4FEACA0B72430499009101953946C5
:10485000CDE906230590FFF7C1FF0598584481452F
:10486000DDE906234744EFD1DAE70AF1010304EB5F
:10487000C303F6000834D5ED436A53ED015AD5ED74
:10488000427A13ED026A26EEE57ABAF1010AA6EE43
:10489000277A03F1080304F1080467EEA57A35448A
:1048A000E6EE267A54ED046A76EEC76A43ED046AB2
:1048B00054ED036A76EEE76A43ED036A54ED046A49
:1048C00036EE877A04ED047A14ED037A77EE277AD0
:1048D00044ED037ACFD109B0BDEC088BBDE8F08F71
:1048E00006FB0AF305EBC30393ED439A04EBCA08F6
:1048F000330104EB0A194FEAC60B04F108064446DB
:10490000574603930434AA46F1EE499AD8ED017A4A
:10491000D5ED436A14ED016A95ED428AD9ED015A4D
:1049200056F8080C66EEE78A0836B0EE687AA6EE0E
:10493000087A08F108085D4428EE278A09F1080979
:10494000F0EE487AE6EE267A0834DAED436A19ED9D
:10495000026A9AED428A66EEE58AE6EE088A28EE59
:10496000258A77EE28AAA6EE268A77EE688A37EEA1
:1049700088AA37EEC88A2BF02FFC41EC1B0B1AEEED
:10498000900A2BF029FCEB4B00222BF07DFC024619
:104990000B4651EC1B0B2BF0BFFA2BF04DFF44F8EC
:1049A0000C0C56F80C0C2BF017FC41EC1B0B1AEE00
:1049B000100A2BF011FCDF4B00222BF065FC0B469C
:1049C000024651EC1B0B2BF0A7FA2BF035FF48F8F1
:1049D000040C56ED047A77EEAA7A013F46ED047A8C
:1049E00056ED037A77EE8A7A46ED037A54ED037A30
:1049F000E9EE087A49ED027A58ED017AE9EEA87AF3
:104A000049ED017A54ED037AE9EE887A44ED037AB0
:104A100058ED017AE9EE287A48ED017A039B9A4431
:104A20007FF474AF57E7574618224FEAC60A4FEA99
:104A3000061904EB071056436A6804EBC70100EB44
:104A4000C70304F1040CAE46A846D1ED016AD5EDCA
:104A5000437A91ED006A95ED427AD0ED014AD3EDAB
:104A6000013A93ED004A1CED013A67EEE65AE6EE94
:104A7000075A27EE267AB0EE655AA6EE277AD0EDD1
:104A8000005AD8ED427AF0EE476A98ED437A27EE65
:104A9000646AA5EEA76A67EEA47ADEED434AE5EE06
:104AA000877A9EED427A64EEE35AE4EE075A27EEE7
:104AB000237AD4ED013AA4EE247A33EE464A73EE1B
:104AC000E74A36EE036A77EEA37A35EE253A76EEBC
:104AD000873A0CED016AC4ED017A36EE436A77EE4F
:104AE000E37A80ED006AC0ED017A36EEC77A5CEDBC
:104AF000016A76EE836A75EE655A4CED016AD4ED73
:104B0000017A77EEA37A74EE076AC4ED017A34EE87
:104B1000477A74EEE57A74EEA55AC2B181ED007A57
:104B2000C1ED015AC3ED006AC3ED017A013F04F102
:104B3000080401F10801554400F10800C84403F1DC
:104B40000803B6440CF1080C7FF47FAFC3E6C1ED57
:104B5000006AC1ED017A83ED007AC3ED015AE5E701
:104B6000059A0AFB06F302EBC307F20097ED012A50
:104B7000039218227243D7ED001A049207EBC30781
:104B800004EB0A1397ED001AD7ED012A4FEA061B32
:104B900004EBCA0703EBCA0103EB0A107601AC462B
:104BA000AE46A8464FF00009F1EE420ACA4504F1AC
:104BB000080407F1080703F1080301F1080100F1F7
:104BC00008007FF788AED5ED436A57ED013AD5ED81
:104BD000425A17ED026AD8ED424A13ED025A11ED1E
:104BE000024A14ED027A54ED017A039A26EEE33A72
:104BF0001544A6EE253A049A65EEA35AF0EE439AC0
:104C0000E6EE265A09F1010953ED016AF0EE653A24
:104C1000D8ED435A25EEE66A64EEA66AA5EE246A4C
:104C2000D844E5EE256ADEED435A9EED425AF0EE99
:104C3000664A51ED016AF0EE468A25EEE66A964430
:104C4000A4EE056A25EE265ADCED436AA4EE255A49
:104C500050ED015A9CED424AB0EE460A26EEE53A86
:104C600010ED026AA6EE043AB44464EE255A39EE19
:104C700083AAE6EE265A39EEC33A78EE809A34EEED
:104C8000858A74EEC56A3AEE295A33EEA59A35EE56
:104C9000075AF0EE474A04ED025A39EE085AE1EE9F
:104CA0008A4A35EE275A38EEC06A04ED015AB0EE52
:104CB000675A73EEE55AA1EE895A62EEA63AA1EE62
:104CC0000A7AE2EE253AE1EE294A26EE624AE1EE60
:104CD000097A65EEE25AA1EE085AE2EE265AA0EEF3
:104CE000834AA1EEA97A66EE426A34EEE30AE1EE67
:104CF000887AE2EE836A07ED020A37EE256A35EE1E
:104D0000440A74EEA34A35EE045A07ED010A37EE61
:104D1000657A40ED024A00ED015A03ED026A37EE72
:104D2000A66A77EEE67A03ED016A01ED027A41EDBB
:104D3000017A3BE70000E03F2B680493039B4FEAB6
:104D4000C30B584600F099FA4FEACA0207924FF097
:104D5000000C0AFB06F20346069283446546AA4508
:104D600051DDAE4600220399914238DC04EBC502C6
:104D7000E6464FF000080399414541DD93E8030002
:104D800082E8030003F108000021584531D0049F58
:104D900090ED015AD0ED005A71448F42D8BFC91B23
:104DA000059F07EBC10999ED016AD9ED007A26EE5E
:104DB000457A0830A5EEA77A67EE857AF0EE476A65
:104DC00092ED007AE5EE867A37EE267A82ED007A69
:104DD00092ED017A77EE277AC2ED017AD5E704EBFE
:104DE000CE0103C903EBC20888E80300D6440132B0
:104DF000B9E707990A44069908F101088E44BAE711
:104E00000135B444ABE7184609B0BDEC088BBDE8EA
:104E1000F04F00F036BA00BF2DE9F84F00F121073E
:104E2000DDF828B004460E461546FF00A3BB384601
:104E300000F023FA054688B3C5E9004605F5847AF3
:104E4000D6B356464FF0000A20462BF0B3F9A245E0
:104E50008046894606F1080655DA50462BF0AAF935
:104E600041A3D3E900232BF00FFA42464B462BF027
:104E700035FB804689462FF0B1FC2BF0DDFC49461E
:104E800046F8080C40462FF0C9FD2BF0D5FC0AF17E
:104E9000010A46F8040CD7E742B91F60BBF1000FC6
:104EA00001D0CBF800702846BDE8F88F1A681F6063
:104EB000BA42C1D20025F1E720462BF07BF9A64289
:104EC000804689460AF1080A1DDA30462BF072F94D
:104ED00027A3D3E900232BF0D7F942464B462BF00A
:104EE000FDFA804689462FF079FC2BF0A5FC494657
:104EF0004AF8080C40462FF091FD2BF09DFC01363E
:104F00004AF8040CD8E720462BF054F92FF0DCFFC8
:104F10002FF0BAFC05F1080A80468946042694FB66
:104F2000F6F306FB1342AAB1022E0FD0042E0FD0C7
:104F3000023630462BF03EF902460B4640464946C3
:104F40002BF014FC002818BF2646E8E70326F0E7FC
:104F50000226EEE7012BCAE900631C469EDD0AF13A
:104F6000080ADCE7AFF30080182D4454FB211940F8
:104F7000182D4454FB2119C02DE9F34191420446F8
:104F80000D4610461F4604F1080817D12068C000DE
:104F900000F073F93B462946CDE90084012206461C
:104FA000FFF71CFC22683146D20028462CF090F80E
:104FB000304602B0BDE8F04100F063B9CDE90084AD
:104FC0000122FFF70BFC02B0BDE8F0810123FFF7DF
:104FD000D3BF0000000000002DE9F04F87B000258E
:104FE00010F001078A4614469846059507D05A489E
:104FF00000F036F92C46204607B0BDE8F08F45108A
:1050000005AB00973A462846FFF706FF05EB450635
:10501000059B06EBD67676100C3303EBC606B8F18B
:10502000000F50D1304600F028F90446002CE2D0A1
:10503000059B04F10C021344636003EBC503A360FA
:105040000023226051460093284605AB05EBD57B33
:10505000FFF7E2FE4FEA6B0BBAF1000F3BD0BB4506
:105060006CDD013738462BF0A5F880462846894686
:105070002BF0A0F802460B46404649462BF02EFA8C
:10508000364B00222AF04AFF2FA3D3E900232BF04E
:10509000FBF84FEAC70A804689462FF09FFBA368BA
:1050A000AAF1080A534403932BF0C6FB039B49461D
:1050B000186040462FF0B2FCA3689A442BF0BCFB6A
:1050C000CAF80400CBE7D8F80030C8F80060B34253
:1050D000ACD23C468FE7D34530DD0AF1010A504699
:1050E0002BF068F88046284689462BF063F8024684
:1050F0000B46404649462BF0F1F9184B00222AF0A6
:105100000DFF13A3D3E900232BF0BEF84FEACA0723
:10511000804689462FF062FBA368083F3B44039317
:105120002BF08AFB039B4946186040462FF076FC23
:10513000A3681F442BF080FB7860CCE7109B002B0A
:105140003FF459AF1E6056E7182D4454FB21094027
:10515000182D4454FB2109C0D05805000000E03F41
:1051600003685B68F7B50646144623B133480191DE
:1051700000F076F80199306872680568FFF726FF3D
:105180007368D3ED007A93ED017A04EBC50277EEF4
:10519000876A77EEC77A002105EBD57CC4ED006AFB
:1051A0004FEA6C0CC2ED007A03EBC5056160B6EE08
:1051B000006A516001218C453EDBC800A0F1080760
:1051C000B068D3ED035A55ED024AD3ED026A55EDAE
:1051D000017A384434EEA67A35EEE75A76EEE46A80
:1051E00077EEA57AD0ED014A90ED004A64EEE75AD9
:1051F00067EE847AE6EE845A01310833E6EEA47A4B
:10520000083D083477EE256A37EE657A66EE866AE1
:1052100027EE067AC4ED006A77EE856A77EEC57AE6
:1052200066EE866A67EE867AC4ED016A083A82ED18
:10523000007AC2ED017ABEE703B0F0BDE95805007F
:105240000020704708B580B20FF0E8FF002008BDCD
:1052500008B50FF0C5FF10F017F8002108BD704722
:105260000FB407B504A951F8040B01912DF0B6FB5A
:1052700003B05DF804EB04B070472BF0B9BE2BF01F
:105280003FBE2BF0BDBE000010289ABF024B53F862
:1052900020000248704700BF885905000F590500DB
:1052A0002DE9704316461C4600220023804689469D
:1052B0002BF052FA054620B1002333602360BDE88D
:1052C00070832246404649462CF004FB104B0022D6
:1052D0002AF0DAFF2FF054FB2BF024FC4FF00042B1
:1052E000824275EB010C034601DA2BF0DBFDA9428B
:1052F00008BF904202BF236801332360226808BFC1
:105300004FF080431F32BCBF002323603360D6E7D9
:105310000000E041F8B515461C460022084B064641
:105320000F462BF041FA08B92BF0BCFD23462A4664
:1053300030463946FFF7B4FF2368002BF4DBF8BD95
:105340000000F03F000000002DE9F7430F460A99E6
:1053500006464FF00040C840CDE900232AF02AFF5E
:10536000DDE9002304460D46304639462AF08CFF1D
:1053700002460B46204629462AF086FF0AA3D3E9B7
:105380000023DDE90B8904460D462BF00DFA10B120
:1053900005A5D5E900454B4642462046294603B0BF
:1053A000BDE8F043FFF7B6BF0000C0FFFFFFDF41DD
:1053B0002DE9F8430124814604FA00F001388846BB
:1053C00015462AF0F7FE0646A5EB09000F46C0F188
:1053D0002003A0F1200124FA03F304FA01F104FAF6
:1053E00000F019432AF022FF02460B4630463946A8
:1053F0002AF04AFFC8F120030F46A8F1200124FA41
:1054000003F304FA01F10646194304FA08F02AF0FE
:105410000DFF02460B46304639462BF05FF82FF061
:1054200033FA2BF0E1F9BDE8F883D0ED007AC0EE55
:10543000277A10B5044617EE900A2FF021FC07EEEC
:10544000900AFDEEE77A636817EE900A184410BDE3
:10545000836810B41BB9036D5DF8044B184703EB68
:1054600041105DF8044B7047002A51F8043B07DBFC
:10547000934205DD51F82210002901DBFFF7E8BF58
:10548000002070470968FFF7EFBF4B68002A53F808
:10549000041B07DB914205DD53F82210002901DBD4
:1054A000FFF7D6BF002070470968FFF7DDBF000097
:1054B000D1ED027A92ED027A67EE877A73B5F5EE56
:1054C000C07AF1EE10FA1E460ADA0F4B00934469D7
:1054D0000E4A0F4940F25113A047012002B070BD9F
:1054E00017EE900A2AF078FE0446B0680D462AF0BE
:1054F00073FE0B460246294620462AF0EFFF069B24
:10550000C3E900010020E9E72F5A0500CC59050046
:10551000185A0500000000002DE9F74F044688687E
:1055200015461E468A462AF057FE8046A8688946D8
:105530002AF052FE02460B46404649462AF0A4FE97
:10554000DDE90C7B80468946D6B1B0682AF044FE7E
:1055500002460B46404649462AF0DEFC8046B868C3
:1055600021F000492AF038FE02460B4640464946E3
:105570002AF0B4FF11A3D3E900232BF001F950B1B5
:105580003B462A4651462046CDF830B003B0BDE830
:10559000F04FFFF78DBF064B009320466569054A23
:1055A00005494FF4A273A847012003B0BDE8F08F6E
:1055B000485A0500CC590500185A05007B14AE471F
:1055C000E17A943FF0B51D46137F85B0032B0A9F07
:1055D0000ED0092B1FD0072B21D0264B00934469F6
:1055E000254A26494FF4C273A047012005B0F0BDFB
:1055F000FF240026D368926802920129039312D1F6
:105600009FED1F0A02A8FFF710FF8642ACBF2E6075
:1056100028603C601BE07F246FF07F06EAE7194EAC
:1056200047F6FF74E6E7032913D19FED150A02A898
:10563000FFF7FBFEB1EE080A8642ACBF2E60286081
:1056400002A8FFF7F2FE8442D4BF3C60386000201D
:10565000CCE702290BD1BFEE000A02A8FFF7E5FE56
:10566000B7EE000A8642ACBF2E602860E8E72E60E5
:10567000CFE700BF6A5A0500CC590500185A05004B
:10568000000000000080FFFF2DE9F04F2DED068B9C
:1056900093B009EE103A229B0693239B0893249B18
:1056A0000D7809EE903A259B0993269B0AEE103A55
:1056B000279B0A93289B0B93299B0C93012D2A9BD4
:1056C000079304468B46924611D00126754B0193F1
:1056D000CDE90256744B00934469744A7449E0233F
:1056E000A047304613B0BDEC068BBDE8F08F1678AE
:1056F000012E0CD0CDE902656A4B01936D4B0093EE
:1057000044696A4A6A49E223A0472E46E9E752689B
:105710003AB9694B00934469ED23644A6749A0474D
:10572000DFE7176827B9664B00934469EE23F4E777
:105730003D68012D38DD0B7F092B06D0072B04D0E7
:10574000604B00934469F223E7E79AF81C30092B79
:105750000DD00922CDE902325B4B01935B4B0093E4
:105760006569F423514A52492046A847B9E7079B87
:105770009D4208D0CDE90253554B0193554B009300
:105780006569F523EEE7DAF81430926803EB8203DB
:105790005B68AB4208D0CDE902534F4B01934C4BB1
:1057A00000936569F623DDE7DBED027A069BB0EE38
:1057B000678AD3ED027A3B1DF0EE678A05930026D7
:1057C000079B9E4232DA012DCABF059B7B681B688E
:1057D0000D9318EE100A2AF0FFFC0D9B8046184628
:1057E00089462AF0F9FC02460B46404649462AF013
:1057F0004BFD804618EE900A89462AF0EDFC0246E1
:105800000B46404649462AF069FE10AB0FAAFFF747
:1058100047FD0B9A0F9B42F826300C9A109B42F8DA
:105820002630059B043301360593C9E79BF81C30ED
:10583000032B1DD100220023CDE9102310AB0193CF
:10584000069B0093524619EE103A59462046FFF740
:1058500063FE064600287FF444AF19EE902A0FAB92
:10586000DDE91001FFF71CFD0F9B099A5B421360F5
:105870009BF81C30092B03D003F0FB03032B0ED144
:105880000A9B08992293069A09781AEE103A204644
:1058900013B0BDEC068BBDE8F04FFFF793BE0026BA
:1058A0001FE700BF8A5A0500A45A0500CC5905001D
:1058B000705A0500BD5A0500D75A0500185A050050
:1058C000EB5A0500065B0500405B05004C5B0500DC
:1058D000595B0500665B0500875B050001380F28F2
:1058E00015D8DFE800F00C0C100E1410080E10088C
:1058F0000E120E14140C02230B60002070470423B8
:10590000FAE70823F8E70123F6E71023F4E701207C
:10591000704710B550F8044B00220123944204DD77
:1059200050F8041B01324B43F8E7184610BD08B588
:105930000368052B01DD2BF0B5FA08BD002908B579
:1059400001DA2BF0AFFA03688B42FADD052BCBBFEF
:10595000436800EB810053F82100406808BD10B592
:10596000044611B90160204610BD496951F8042B65
:105970000260052A01DD2BF095FA920004302BF02D
:10598000A7FBF0E710B508B92BF08CFA0029FBD083
:105990000968436D01EB8202BDE810405168184769
:1059A00010B508B92BF07EFA0029FBD04968436D89
:1059B00001EB8202BDE810405168184710B501683C
:1059C0000529CCBF4368031D002201208A4204DA66
:1059D00053F8224001326043F8E710BD70B5056806
:1059E000049C042D01D02BF05DFA0029FBDB4568F7
:1059F0008D42F8DD002AF6DB86689642F3DD002B47
:105A0000F1DBC5689D42EEDD002CECDB0069A042B5
:105A1000E9DD01FB062205FB023300FB034070BDFC
:105A2000836B10B50BB92BF03DFABDE8104038215F
:105A3000184770B515461E46FFF780FF31460446ED
:105A40002846FFF77BFF844201D02BF02BFA70BD74
:105A50002DE9F04FA1B0984643691293B0F90A308E
:105A60000D93B0F90C300E93B0F90E300F93B0F9DE
:105A700010301093B0F902301393B0F9043014933E
:105A8000C3691593836A0A93C36A0B93CDE91E1207
:105A9000DDE90A3293422B9E2F9F01DD2BF002FAA3
:105AA000D8F80030042BF9D13368042BF6D13B68C9
:105AB000042BF3D1002319463A464046FFF7B9FFBD
:105AC00003231946169032464046FFF7B2FF0323E0
:105AD00017903A4600213046FFF7ABFF2E9B0C9003
